{
  "_format": "hh-sol-artifact-1",
  "contractName": "Buttongame",
  "sourceName": "contracts/ButtonGame.sol",
  "abi": [
    {
      "inputs": [
        {
          "internalType": "uint256",
          "name": "entry",
          "type": "uint256"
        },
        {
          "internalType": "uint256",
          "name": "interval",
          "type": "uint256"
        },
        {
          "internalType": "address",
          "name": "vrf",
          "type": "address"
        }
      ],
      "stateMutability": "nonpayable",
      "type": "constructor"
    },
    {
      "inputs": [],
      "name": "GAME_IS_CLOSED",
      "type": "error"
    },
    {
      "inputs": [],
      "name": "MUST_DEPOSIT_ENTRY_FEE",
      "type": "error"
    },
    {
      "inputs": [],
      "name": "NO_NEED_FOR_UPKEEP",
      "type": "error"
    },
    {
      "anonymous": false,
      "inputs": [
        {
          "indexed": true,
          "internalType": "address",
          "name": "player",
          "type": "address"
        }
      ],
      "name": "ButtonHit",
      "type": "event"
    },
    {
      "inputs": [],
      "name": "PressButton",
      "outputs": [],
      "stateMutability": "payable",
      "type": "function"
    },
    {
      "inputs": [
        {
          "internalType": "uint256",
          "name": "",
          "type": "uint256"
        }
      ],
      "name": "_addressOfPlayers",
      "outputs": [
        {
          "internalType": "address payable",
          "name": "",
          "type": "address"
        }
      ],
      "stateMutability": "view",
      "type": "function"
    },
    {
      "inputs": [],
      "name": "_gameState",
      "outputs": [
        {
          "internalType": "enum Buttongame.GameState",
          "name": "",
          "type": "uint8"
        }
      ],
      "stateMutability": "view",
      "type": "function"
    },
    {
      "inputs": [],
      "name": "_interval",
      "outputs": [
        {
          "internalType": "uint256",
          "name": "",
          "type": "uint256"
        }
      ],
      "stateMutability": "view",
      "type": "function"
    },
    {
      "inputs": [],
      "name": "_lastTimestamp",
      "outputs": [
        {
          "internalType": "uint256",
          "name": "",
          "type": "uint256"
        }
      ],
      "stateMutability": "view",
      "type": "function"
    },
    {
      "inputs": [],
      "name": "_vrf",
      "outputs": [
        {
          "internalType": "contract VRFCoordinatorV2Interface",
          "name": "",
          "type": "address"
        }
      ],
      "stateMutability": "view",
      "type": "function"
    },
    {
      "inputs": [
        {
          "internalType": "bytes",
          "name": "",
          "type": "bytes"
        }
      ],
      "name": "checkUpkeep",
      "outputs": [
        {
          "internalType": "bool",
          "name": "upkeepNeeded",
          "type": "bool"
        },
        {
          "internalType": "bytes",
          "name": "",
          "type": "bytes"
        }
      ],
      "stateMutability": "view",
      "type": "function"
    },
    {
      "inputs": [],
      "name": "lastAddress",
      "outputs": [
        {
          "internalType": "address",
          "name": "",
          "type": "address"
        }
      ],
      "stateMutability": "view",
      "type": "function"
    },
    {
      "inputs": [
        {
          "internalType": "bytes",
          "name": "",
          "type": "bytes"
        }
      ],
      "name": "performUpkeep",
      "outputs": [],
      "stateMutability": "nonpayable",
      "type": "function"
    }
  ],
  "bytecode": "0x60c06040523480156200001157600080fd5b5060405162000d1138038062000d1183398181016040528101906200003791906200012f565b826080818152505081600381905550426004819055508073ffffffffffffffffffffffffffffffffffffffff1660a08173ffffffffffffffffffffffffffffffffffffffff16815250505050506200018b565b600080fd5b6000819050919050565b620000a4816200008f565b8114620000b057600080fd5b50565b600081519050620000c48162000099565b92915050565b600073ffffffffffffffffffffffffffffffffffffffff82169050919050565b6000620000f782620000ca565b9050919050565b6200010981620000ea565b81146200011557600080fd5b50565b6000815190506200012981620000fe565b92915050565b6000806000606084860312156200014b576200014a6200008a565b5b60006200015b86828701620000b3565b93505060206200016e86828701620000b3565b9250506040620001818682870162000118565b9150509250925092565b60805160a051610b60620001b160003960006102d9015260006103cc0152610b606000f3fe6080604052600436106100855760003560e01c80636e04ff0d116100595780636e04ff0d146101465780638aeb9e7314610184578063aa91c9c61461018e578063cd68100c146101b9578063e899424a146101e457610085565b8062aaef941461008a5780634585e33b146100c757806358aee3c1146100f05780636be3a8d31461011b575b600080fd5b34801561009657600080fd5b506100b160048036038101906100ac91906105bd565b61020f565b6040516100be919061062b565b60405180910390f35b3480156100d357600080fd5b506100ee60048036038101906100e991906106ab565b61024e565b005b3480156100fc57600080fd5b506101056102d1565b6040516101129190610707565b60405180910390f35b34801561012757600080fd5b506101306102d7565b60405161013d9190610781565b60405180910390f35b34801561015257600080fd5b5061016d600480360381019061016891906108dd565b6102fb565b60405161017b9291906109c9565b60405180910390f35b61018c6103ca565b005b34801561019a57600080fd5b506101a3610536565b6040516101b09190610707565b60405180910390f35b3480156101c557600080fd5b506101ce61053c565b6040516101db9190610a1a565b60405180910390f35b3480156101f057600080fd5b506101f9610562565b6040516102069190610aac565b60405180910390f35b6001818154811061021f57600080fd5b906000526020600020016000915054906101000a900473ffffffffffffffffffffffffffffffffffffffff1681565b6000610268604051806020016040528060008152506102fb565b509050806102a2576040517f35e5f97f00000000000000000000000000000000000000000000000000000000815260040160405180910390fd5b60016000806101000a81548160ff021916908360018111156102c7576102c6610a35565b5b0217905550505050565b60045481565b7f000000000000000000000000000000000000000000000000000000000000000081565b60006060600042905060008060009054906101000a900460ff16600181111561032757610326610a35565b5b6000600181111561033b5761033a610a35565b5b1490506000600354600454846103519190610af6565b119050600080471190506000806001805490501190508280156103715750835b801561037a5750815b80156103835750805b9650866040518060400160405280600381526020017f3078300000000000000000000000000000000000000000000000000000000000815250965096505050505050915091565b7f00000000000000000000000000000000000000000000000000000000000000003414610423576040517fe103b24100000000000000000000000000000000000000000000000000000000815260040160405180910390fd5b6000600181111561043757610436610a35565b5b60008054906101000a900460ff16600181111561045757610456610a35565b5b1461048e576040517fa8447f3800000000000000000000000000000000000000000000000000000000815260040160405180910390fd5b6001339080600181540180825580915050600190039060005260206000200160009091909190916101000a81548173ffffffffffffffffffffffffffffffffffffffff021916908373ffffffffffffffffffffffffffffffffffffffff1602179055503373ffffffffffffffffffffffffffffffffffffffff167f91ee282adc031a833419d1ed497855a5e7fa6fdc10ae15661db6f9948d8852c360405160405180910390a2565b60035481565b600260009054906101000a900473ffffffffffffffffffffffffffffffffffffffff1681565b60008054906101000a900460ff1681565b6000604051905090565b600080fd5b600080fd5b6000819050919050565b61059a81610587565b81146105a557600080fd5b50565b6000813590506105b781610591565b92915050565b6000602082840312156105d3576105d261057d565b5b60006105e1848285016105a8565b91505092915050565b600073ffffffffffffffffffffffffffffffffffffffff82169050919050565b6000610615826105ea565b9050919050565b6106258161060a565b82525050565b6000602082019050610640600083018461061c565b92915050565b600080fd5b600080fd5b600080fd5b60008083601f84011261066b5761066a610646565b5b8235905067ffffffffffffffff8111156106885761068761064b565b5b6020830191508360018202830111156106a4576106a3610650565b5b9250929050565b600080602083850312156106c2576106c161057d565b5b600083013567ffffffffffffffff8111156106e0576106df610582565b5b6106ec85828601610655565b92509250509250929050565b61070181610587565b82525050565b600060208201905061071c60008301846106f8565b92915050565b6000819050919050565b600061074761074261073d846105ea565b610722565b6105ea565b9050919050565b60006107598261072c565b9050919050565b600061076b8261074e565b9050919050565b61077b81610760565b82525050565b60006020820190506107966000830184610772565b92915050565b600080fd5b6000601f19601f8301169050919050565b7f4e487b7100000000000000000000000000000000000000000000000000000000600052604160045260246000fd5b6107ea826107a1565b810181811067ffffffffffffffff82111715610809576108086107b2565b5b80604052505050565b600061081c610573565b905061082882826107e1565b919050565b600067ffffffffffffffff821115610848576108476107b2565b5b610851826107a1565b9050602081019050919050565b82818337600083830152505050565b600061088061087b8461082d565b610812565b90508281526020810184848401111561089c5761089b61079c565b5b6108a784828561085e565b509392505050565b600082601f8301126108c4576108c3610646565b5b81356108d484826020860161086d565b91505092915050565b6000602082840312156108f3576108f261057d565b5b600082013567ffffffffffffffff81111561091157610910610582565b5b61091d848285016108af565b91505092915050565b60008115159050919050565b61093b81610926565b82525050565b600081519050919050565b600082825260208201905092915050565b60005b8381101561097b578082015181840152602081019050610960565b8381111561098a576000848401525b50505050565b600061099b82610941565b6109a5818561094c565b93506109b581856020860161095d565b6109be816107a1565b840191505092915050565b60006040820190506109de6000830185610932565b81810360208301526109f08184610990565b90509392505050565b6000610a04826105ea565b9050919050565b610a14816109f9565b82525050565b6000602082019050610a2f6000830184610a0b565b92915050565b7f4e487b7100000000000000000000000000000000000000000000000000000000600052602160045260246000fd5b60028110610a7557610a74610a35565b5b50565b6000819050610a8682610a64565b919050565b6000610a9682610a78565b9050919050565b610aa681610a8b565b82525050565b6000602082019050610ac16000830184610a9d565b92915050565b7f4e487b7100000000000000000000000000000000000000000000000000000000600052601160045260246000fd5b6000610b0182610587565b9150610b0c83610587565b925082821015610b1f57610b1e610ac7565b5b82820390509291505056fea26469706673582212202f6dc76d928a28fb8af69f7c514ff6406bf430b67c57f72c743761555041016164736f6c634300080a0033",
  "linkReferences": {},
  "deployedLinkReferences": {}
}