{
  "_format": "hh-sol-artifact-1",
  "contractName": "Timer",
  "sourceName": "contracts/ButtonGame.sol",
  "abi": [
    {
      "inputs": [],
      "name": "TimerGoing",
      "outputs": [],
      "stateMutability": "nonpayable",
      "type": "function"
    },
    {
      "inputs": [],
      "name": "getTime",
      "outputs": [
        {
          "internalType": "uint256",
          "name": "",
          "type": "uint256"
        }
      ],
      "stateMutability": "view",
      "type": "function"
    },
    {
      "inputs": [],
      "name": "setTimerStart",
      "outputs": [],
      "stateMutability": "nonpayable",
      "type": "function"
    }
  ],
  "bytecode": "0x608060405234801561001057600080fd5b50610292806100206000396000f3fe608060405234801561001057600080fd5b50600436106100415760003560e01c8063557ed1ba14610046578063c67c222514610064578063d06258a21461006e575b600080fd5b61004e610078565b60405161005b919061010b565b60405180910390f35b61006c6100d2565b005b6100766100db565b005b60006001544211156100bf576040517f08c379a00000000000000000000000000000000000000000000000000000000081526004016100b690610183565b60405180910390fd5b426001546100cd91906101d2565b905090565b42600081905550565b600054603c6100ea9190610206565b600181905550565b6000819050919050565b610105816100f2565b82525050565b600060208201905061012060008301846100fc565b92915050565b600082825260208201905092915050565b7f74696d6572206f76657200000000000000000000000000000000000000000000600082015250565b600061016d600a83610126565b915061017882610137565b602082019050919050565b6000602082019050818103600083015261019c81610160565b9050919050565b7f4e487b7100000000000000000000000000000000000000000000000000000000600052601160045260246000fd5b60006101dd826100f2565b91506101e8836100f2565b9250828210156101fb576101fa6101a3565b5b828203905092915050565b6000610211826100f2565b915061021c836100f2565b9250827fffffffffffffffffffffffffffffffffffffffffffffffffffffffffffffffff03821115610251576102506101a3565b5b82820190509291505056fea2646970667358221220854c74a1996d72bb3fdf54c6830f33739ff43ab08fc185eebcb61269af10403864736f6c634300080a0033",
  "linkReferences": {},
  "deployedLinkReferences": {}
}